:100000000C942A000C943C000C943E010C943C008F
:100010000C943C000C943C000C943C000C943C0070
:100020000C943C000C943C000C943C000C94AA01F1
:100030000C943C000C943C000C943C000C943C0050
:100040000C943C000C943C000C943C000C943C0040
:100050000C943C0011241FBECFE5D8E0DEBFCDBF1D
:1000600020E0A0E6B0E001C01D92A437B207E1F79E
:100070000E94A0000C9412020C94000084B38FEF35
:1000800084BB81B3806181BB84B3826084BB0895EB
:1000900082B3806182BB85B3806185BB85B3877F76
:1000A00085BB089582B3806182BB85B3886085BBC0
:1000B00085B38F7E85BB089585B3826085BB85B38C
:1000C000806485BB85B38F7D85BB089585B38260D1
:1000D00085BB85B3806285BB85B38F7B85BB089567
:1000E00015BA08950E9448000E945C0008950E947D
:1000F00052000E9466008FE493EC0197F1F700C074
:1001000000000E94700008950E9448002FE986E8D0
:1001100091E0215080409040E1F700C000000E9433
:10012000700008950E945C002FEB84ED91E0215057
:1001300080409040E1F700C000000E9470000895E8
:100140000E94FA000E941C010E943E00789484E5FF
:1001500091E00E940A010E94E3014E970CF047C013
:100160000E94700083EC99E00197F1F700C0000055
:100170000E9477008AEA90E00E940A019FE32DE046
:1001800083E0915020408040E1F700C000000E94D1
:10019000E3014F9754F08FE493EC0197F1F700C01F
:1001A00000000E94840081E016C08EEF91E00E9462
:1001B0000A019FE32DE083E0915020408040E1F769
:1001C00000C000000E94E3014F9724F00E949200BB
:1001D00081E001C080E0813039F484E591E00E9443
:1001E0000A010E947200B3CF0E947700B0CF0E9434
:1001F0007200ADCF1DBC1CBC8FB582688FBD8EB5A3
:100200008B618EBD87E893E197BD86BD81B3806227
:1002100081BB08959BBD8ABD089513BE81E083BF55
:1002200012BE89B7816089BF089585B7846085BF94
:100230008BB780688BBF089581B3816081BB81B328
:10024000877F81BB82B3886082BB0E9415010E94B8
:100250000D0108958091650081110FC082B3816006
:1002600082BB87EC90E00197F1F700C0000082B3F9
:100270008E7F82BB81E08093650008951F920F926C
:100280000FB60F9211242F933F934F935F936F9369
:100290007F938F939F93AF93BF93EF93FF9380913F
:1002A0006500813009F045C08091640081110DC066
:1002B00012BE81E080936400109260001092610091
:1002C000109262001092630034C08091600090919F
:1002D0006100A0916200B0916300BA2FA92F982FFE
:1002E000882722B7BC01CD01620F711D811D911DB0
:1002F00025EA33E040E050E00E94F00120936600E0
:100300003093670040936800509369002FEF83EFAC
:1003100091E0215080409040E1F700C00000109231
:1003200060001092610010926200109263001092BF
:100330006400FF91EF91BF91AF919F918F917F9159
:100340006F915F914F913F912F910F900FBE0F9042
:100350001F9018951F920F920FB60F9211242F9392
:100360008F939F93AF93BF938091600090916100B2
:10037000A0916200B09163000196A11DB11D809310
:10038000600090936100A0936200B0936300853B8E
:100390009540A105B10568F012BE1092650010925B
:1003A000640010926000109261001092620010923E
:1003B0006300BF91AF919F918F912F910F900FBECE
:1003C0000F901F9018950E942A018FE59AEE0197D1
:1003D000F1F700C0000080916600909167000895D9
:1003E000A1E21A2EAA1BBB1BFD010DC0AA1FBB1F39
:1003F000EE1FFF1FA217B307E407F50720F0A21BAB
:10040000B30BE40BF50B661F771F881F991F1A9417
:1004100069F760957095809590959B01AC01BD0141
:08042000CF010895F894FFCF0D
:00000001FF
